:020000040001F9
:10400000703B0020F540010007410100094101001B
:1040100000000000000000000000000000000000A0
:104020000000000000000000000000000B41010043
:1040300000000000000000000D4101000F410100E0
:104040001141010011410100B3790100114101004A
:104050001141010000000000296F01001141010021
:104060001141010011410100114101001141010004
:1040700011410100114101001141010011410100F4
:1040800011410100756B0100114101001141010056
:10409000976B01008D770100A54A010011410100D5
:1040A000114101001141010000000000000000006A
:1040B0000000000000000000000000000000000000
:1040C0000348854607F006F800480047C58E010002
:1040D000703B0020401E00BF00BF00BF00BF00BFFC
:1040E00000BF00BF00BF00BF00BF00BF00BFF1D1D5
:1040F00070470000074802680F210A430260064823
:10410000804706480047FEE7FEE7FEE7FEE7FEE7DA
:10411000FEE7000024050040ED410100C140010020
:1041200000B54148C06980B21D38030007F0A6F809
:1041300018170D29292929290F2923252929191B70
:104140001F111321291529271D29012000BD012038
:10415000FCE70120FAE70120F8E70020F6E701205C
:10416000F4E70120F2E70120F0E70120EEE701206B
:10417000ECE70020EAE70120E8E70120E6E701207C
:10418000E4E70120E2E700B52748C06980B21D38A6
:10419000030007F073F818170D29292929290F2979
:1041A00023252929191B1F111321291529271D2909
:1041B000012000BD0120FCE70020FAE70020F8E71D
:1041C0000120F6E70120F4E70020F2E70020F0E705
:1041D0000020EEE70020ECE70120EAE70120E8E715
:1041E0000120E6E70120E4E70020E2E710B5FFF751
:1041F000CAFF002805D00D480D494860C8130D4975
:104200008861FFF78DFF002809D0012005210907EB
:10421000072212028918C867C0070749C86010BD85
:10422000064807490860704740000010DFFF07C0DC
:1042300000050040006C0040000500500024F40020
:104240000020002030B585B004460D4600210091C5
:10425000F5488088F449C988401A81B200916846BF
:104260000088142801DD142101E0684601880091CE
:104270006846008800280BD1EB4B99881868AA681B
:1042800090470020E84908608880C88005B030BDAC
:10429000002001900290039004906188684681801C
:1042A000E1480068E049C9884018049068460390D6
:1042B00002218171DC48C188684600880818DA4903
:1042C000C880608B01A9A6DFE0E770B505460E4601
:1042D000144621462846FFF7B5FF70BD70B5064667
:1042E0000D46144620460A30030006F0C7FF0A2A8E
:1042F00026221E1A16120E0A062ECCA006F07EFFEB
:1043000024E0D0A006F07AFF20E0D3A006F076FFEC
:104310001CE0D8A006F072FF18E0DBA006F06EFFEC
:1043200014E0E0A006F06AFF10E0E9A006F066FFE6
:104330000CE0F1A006F062FF08E0F9A006F05EFFD5
:1043400004E0FEA006F05AFF00E000BF00BF2046D8
:104350002969884770BDF7B582B0074615460398AE
:10436000841D00262088798988424BD1208B14280F
:1043700048DCFA488088002810D120461A30009086
:104380000099488805F07DFAF44988800020C880AB
:10439000888807F099FDF149086000BFEF488088E0
:1043A000EE49C988461A208BB04201DD304600E054
:1043B000208B0646E9490968E84AD28888183246BF
:1043C00021461A3106F0A2FBE448C0888019E3496F
:1043D000C88008468088C988884213DCDF4B9988EA
:1043E0001868EA6890470190DC4B99881868AA68B9
:1043F000904729463846019AFFF770FF0020D749B9
:104400008880C88005B0F0BD70B504460D461646DC
:104410002888102806D0112813D0502805D05328FA
:1044200013D108E0A888608310E032462946204670
:10443000FFF791FF0AE0324629462046FFF745FF85
:1044400004E00020C043608300E000BF00BF70BDF7
:1044500038B5044600BF012168468170C04901801B
:1044600000BF224669460120A0DF0546284638BD28
:10447000F8B50446072007F027FD0090009861DF9B
:10448000054600BF2F46002F06D000BFB5A2C321AE
:10449000384604F031FD00BF00BF0098461C0620DE
:1044A00005E0411EC8B2315C0522121AA154002851
:1044B000F7DC009807F0DEFC00200090F8BD30B576
:1044C0008FB00446B0A50020079000BF6846007F6B
:1044D00001090901491C68460177007FF0218843E2
:1044E00010306946087700BF00BF6846407F010969
:1044F0000901491C68464177407FF021884310300C
:104500006946487700BF6846807F06218843811C42
:10451000684681771C2108A806F01FFB08A80078D0
:1045200020218843203008A90870002009900B90B2
:104530000C900D900E9000BF012168468171884952
:104540001F39818000BF0020009000BF68460078BE
:1045500001090901491C684601700078F02188436F
:1045600010306946087000BF00BF684640780109F6
:104570000901684641704078F021884369464870D7
:1045800000BF6846807806218843811C6846817098
:104590008078082188430146684681708078102120
:1045A0008843014668468170807841084900491C6B
:1045B00068468170142102A806F0CFFA01A8029083
:1045C00068460390284606F0E0FA81B26846018208
:1045D000002141821421818206952088A31C02AA11
:1045E00008A9A2DF0FB030BD30B58FB004466AA570
:1045F0001C2108A806F0B1FA08A908780821884308
:10460000083008A90870002009900B900C900D90BC
:104610000E9000BF01216846817251492039018105
:1046200000BF00200190BDE0042000200D0A2120E1
:104630006572726F723A2073797374656D2065725A
:10464000726F72000D0A21206572726F723A206ECD
:1046500065656441757468000D0A21206572726F8A
:10466000723A2073657373696F6E54696D656F7507
:10467000740000000D0A21206572726F723A206486
:1046800065636F64650000000D0A21206572726F1A
:10469000723A206465766963654973426C6F636B37
:1046A000000000000D0A21206572726F723A2073BB
:1046B000657276696365556E4176616C69626C6599
:1046C000496E4261636B67726F756E640000000033
:1046D0000D0A21206572726F723A206465766963F3
:1046E0006550726F746F56657273696F6E4E656553
:1046F00064557064617465000D0A21206572726FE3
:10470000723A2070686F6E6550726F746F56657282
:1047100073696F6E4E656564557064617465000001
:104720000D0A21206572726F723A206D61785265B0
:1047300071496E5175657565000000000D0A2120F4
:104740006572726F723A2075736572457869745735
:10475000784163636F756E74000000000C200020C8
:10476000E7FE00002E2E5C73657276696365735CEC
:10477000626C655F7765636861745F7365727669A3
:1047800063652E6300000000696E6469636174658F
:104790002063686172000000777269746520636845
:1047A0006172000000BF6846007901090901491CD7
:1047B000684601710079F02188431030694608711C
:1047C00000BF00BF6846407901090901491C6846DD
:1047D00041714079F021884310306946487100BF2B
:1047E0006846807906218843811C684681718079FA
:1047F00008218843014668468171807910218843E9
:10480000014668468171807941084900491C684623
:104810008171142103A806F0A0F902A8039001A851
:104820000490284606F0B1F981B2684681820021E1
:10483000C182142101830795208823460A3303AAE5
:1048400008A9A2DF0FB030BD10B58EB00446654890
:10485000FFF70EFE1C2107A806F07FF96946087FC6
:1048600002218843801C69460877002008900A903E
:104870000B900C900D9000BF0121684681715A4940
:10488000818000BF0020009000BF684600780109C9
:104890000901491C684601700078F02188431030F6
:1048A0006946087000BF00BF6846407801090901E9
:1048B000491C684641704078F021884310306946B1
:1048C000487000BF6846807806218843811C68468E
:1048D000817080780821884301466846817080781D
:1048E000102188430146684681708078410849005C
:1048F000491C68468170142102A806F02EF901A80F
:104900000290684603900621018200214182142111
:1049100081823448069020882346123302AA07A9D0
:10492000A2DF0EB010BD70B506463046FFF7C7FDDA
:10493000044600BF2546002D07D000BF2B4AFF21AB
:104940005331284604F0D8FA00BF00BF3046FFF7C5
:104950004BFE044600BF2546002D07D000BF234A6A
:10496000FF215531284604F0C7FA00BF00BF30468A
:10497000FFF76AFF044600BF2546002D07D000BFA1
:104980001A4AFF215731284604F0B6FA00BF00BF8B
:10499000204670BDF8B506460F4614461D46002C4D
:1049A00001D0002D01D10020F8BD114880880028D9
:1049B0000DD00F48C0880E498988884207D00C481E
:1049C0008288C1880BA006F019FC0020ECE708489B
:1049D000046001468D800020C88039463046FFF7CC
:1049E00031FCE1E714200020C9FE0000644701000B
:1049F000042000200D0A206F66667365743A2564F2
:104A00002025640070B506460C461546294620460A
:104A100004F074FA70BDFFB581B00C4616461F460F
:104A200020468107890F01D1012100E000210029E2
:104A300002D1072005B0F0BD002C01D10720F9E715
:104A400025480460254806802548076025490A98BE
:104A500008602549019810DF0546002D01D0284641
:104A6000E8E7162023DFE5E738B500BF1B480088DC
:104A7000009069461848006850DF0446052C00D1B4
:104A80000EE0002C06D000BF18A25F21204604F0E3
:104A900033FA00BF10480068114909688847E5E704
:104AA00000BF38BD70B50F480068002810D00D4811
:104AB00000688047044600BF2546002D06D000BF91
:104AC0000AA27121284604F017FA00BF00BF01E0D6
:104AD000FFF7CAFF70BD000024200020282000201E
:104AE0001C20002020200020054A01002E2E5C6C96
:104AF0006962735C626C655F737461636B5F68614C
:104B00006E646C65722E630001464888B74A12884D
:104B1000904206DB4888B54A5288904201DC012069
:104B200070470020FCE738B50546B1480088B14918
:104B300088423BD0B0480078401CAF490870AF486D
:104B4000007B097888420FDBA849A948008865DF07
:104B50000446002C07D0A9488069002803D0A74844
:104B600081692046884721E00020A3490870A348B6
:104B7000007C00280FD03B219D48008866DF04465A
:104B8000002C07D09D488069002803D09B4881698C
:104B90002046884700BF99484069002806D0002079
:104BA0000090964841696846884700BF38BD70B597
:104BB00005461C222946914805F0A8FF002090498F
:104BC0000870286800280BD008228848296805F05A
:104BD0009DFF86486ADF0446002C08D0204670BD41
:104BE00082486BDF0446002C01D02046F7E7002006
:104BF000C0437F49088000207F490870814A002116
:104C0000814802F049F8EAE710B57F48006802F0F1
:104C1000BBF810BD38B57D48FFF776FF002829D1D5
:104C20007748007800280AD074484069002820D0CE
:104C300000200090714841696846884719E06E4835
:104C40000078002802D16D48456801E06B4885680E
:104C5000002229466C48006802F065F80446002CE2
:104C600007D066488069002803D0644881692046DF
:104C700088470AE061484069002806D0012000907A
:104C80005E4841696846884700BF00205C4908705B
:104C900038BD10B50446A088554908800822214631
:104CA0000E315A4805F032FF00205349087053482E
:104CB000C089002801D1FFF7ADFF10BD70B50546D2
:104CC0000020C0434A49088000204B4908704E48E4
:104CD000006802F059F80446002C07D04748806964
:104CE000002803D0454881692046884770BD70B5CB
:104CF0000546AC1D20884149C989884220D1208BB6
:104D000002281DD100BF00BFA17EE27E1202114326
:104D10000846C107C90F002902D0FFF77BFF0FE04B
:104D20003948006802F030F80646002E07D03348B4
:104D30008069002803D0314881693046884700BF28
:104D400070BD10B504460822A11D304805F0DEFEF6
:104D5000FFF760FF10BD10B504462088102806D06C
:104D6000112808D012280ED0502810D107E0204674
:104D7000FFF78FFF0CE02046FFF7A0FF08E020467A
:104D8000FFF7B5FF04E02046FFF7DBFF00E000BFC0
:104D900000BF10BD38B5044608222146134805F06F
:104DA000B5FE12486ADF0546002D1CD11748FFF7F3
:104DB000ABFE00280BD10120114908700B490C48AB
:104DC000008865DF054601200B4908700BE00B48A1
:104DD0004069002806D001200090084841696846D3
:104DE000884700BF0025284638BD00002E2000203F
:104DF00038200020FFFF0000362000204021002046
:104E00002C200020274B0100442000203A200020C5
:104E10000246100C0004F84B984202D10A80002090
:104E20007047501C01D10520FAE70B20F8E770B558
:104E3000054601210907096988B2502105F050FE95
:104E4000EE490978884201D8042070BDEB4800780B
:104E5000002810D100221146104602F075FBE849E7
:104E60000880E8490878E84902F079FC0446002CFB
:104E700001D02046E9E713222946E3480068001DD7
:104E800002F0DAFB0446002C01D02046DDE7DC4AC4
:104E90004C21284602F058FBD94908800846008872
:104EA000D54A10430146D848006802F0BCFB0446CE
:104EB000002C01D02046C8E7D34800685030D249C2
:104EC0000860CE480078401CCC4908700020BCE740
:104ED00070B5054601210907096988B2502105F01E
:104EE000FFFDCA490978884201D8042070BDC7482F
:104EF0000078002810D100221146104602F024FB51
:104F0000C3490880BF494878C24902F028FC0446DA
:104F1000002C01D02046E9E707222946BD48006859
:104F2000001D02F089FB0446002C01D02046DDE77D
:104F3000B74A1C21284602F007FBB54908800846FD
:104F40000088AD4A10430146B248006802F06BFB8E
:104F50000446002C01D02046C8E7AE480068203047
:104F6000AC490860A9480078401CA8490870002096
:104F7000BCE738B50546A1480078002810D10022CA
:104F80001146104602F0E0FA9D4908809D490878D4
:104F90009D4902F0E4FB0446002C01D0204638BDB8
:104FA0009949096808686946FFF732FF0446002CF2
:104FB00001D02046F3E74C2293480168091D28469A
:104FC00005F0A4FD8E4A4C21284602F0BDFA8C491A
:104FD0000880084600886946098888420BD18748BE
:104FE0000078401C85490870874800685030864921
:104FF00008600020D3E70B20D1E738B50546834889
:105000000078002810D100221146104602F09CFAC8
:105010007F4908807B4948787E4902F0A0FB04461E
:10502000002C01D0204638BD7A49096808686946D5
:10503000FFF7EEFE0446002C01D02046F3E71C22C9
:1050400074480168091D284605F060FD704A1C215E
:10505000284602F079FA6E490880084600886946B9
:10506000098888420BD169480078401C674908705C
:10507000684800682030674908600020D3E70B20AB
:10508000D1E710B55F49087802F0E8FA0446002C31
:1050900001D0204610BD5B49487802F0DFFA044693
:1050A000002C01D02046F5E70020F3E738B50022B8
:1050B0001146104602F048FA0090002409E06821E9
:1050C0006143554A88186A464C2102F03DFA009027
:1050D000641C524800788442F1DB684600884849E5
:1050E0000988884201D0012038BD0020FCE738B58E
:1050F00000221146104602F027FA009000240BE02F
:1051000068216143444A891808464C306A461C218C
:1051100002F01AFA0090641C404800788442EFDBE9
:10512000684600883A490988884201D0012038BD84
:105130000020FCE770B505463948406E002808D0CD
:105140003748406E142801D9032070BD344C5034C8
:1051500000E0002432484C30008B82B221463148B6
:105160000088A9DFF1E710B5002100202E4A107059
:105170002E4A10703BE068224A43274BD018427AEF
:105180005207D20F1FD04222125C002A1BD04222AB
:10519000125C012A17D04222125C032A13D0027833
:1051A00052B2224B1B78DB00214CE25402461E32E5
:1051B0001E4B1B78DB001B195A601C4A1278521CCC
:1051C0001A4B1A7012E0027852B2174B1B78DB00B0
:1051D000184CE25402464232134B1B78DB001B1979
:1051E0005A60114A1278521C0F4B1A70491C0B4816
:1051F00000788142BFDB10BD0000DE455C2000204E
:105200005020002094210020542000205D20002008
:105210005220002058200020082200204C2000208E
:10522000A02100204A2000204D2000204E200020F8
:1052300018250020E02400207CB50546FE480078B3
:10524000072801DB04207CBD32222946FB4805F0FB
:105250005DFCE988F948001FC18700214166F648D6
:105260000078F649091F0860F3490978F24A127874
:10527000521CF14B1A7068225143F14A8818682277
:10528000EE49091F05F042FCFFF76DFF00221146B1
:10529000EC480088A9DF0446002C01D02046D2E764
:1052A000E648001FFFF7C3FD0446042C15D1E6486D
:1052B0004068002811D004200090E048001F0078CA
:1052C00041B268460171DD48001FC18F6846C18048
:1052D000DD4841686846884703E0002C01D020463D
:1052E000B1E7D9484068002811D000200090D34889
:1052F000001F007841B268460171D048001FC18F7D
:105300006846C180D04841686846884700BF002091
:1053100099E770B5C948001F0568002D10DBC64825
:10532000007885420CDA68216943C54A88186822EA
:10533000C249091F05F0EAFBFFF715FF002400E052
:105340000324204670BD70B505460020C043BB490C
:10535000091F0860002412E068206043B849401823
:10536000C08FA8420AD1682060430A46811868228B
:10537000B248001F05F0CAFB002070BD641CAE4897
:1053800000788442E8DB0520F7E770B594B0002090
:10539000A94908702FE001A8FFF7EBFD0546052D90
:1053A00000D12CE0002D02D0284614B070BD019E23
:1053B000A1480078864201DD0B20F6E768217143A1
:1053C0009F4A88184C2201A905F0A0FB9A48007852
:1053D00086420FD1002168207043994A80184166A7
:1053E000491E682070438018C16493480078401CAF
:1053F0009149087000BF904800780728CBDB00BFB8
:1054000000241DE00DA8FFF7F8FD0546052D00D18D
:105410001AE0002D01D02846C7E7874909780D9882
:10542000884201DD0B20C0E768220D995143844A70
:10543000891808464C301C220DA905F067FB641C36
:105440007D4800788442DDDB00BF7B48047810E0B3
:105450000021C94368206043794A11500021682027
:10546000604380184166491E682060438018C1640B
:10547000641C072CECDBFFF776FE002095E7024664
:105480001078C007C00F0B78DB07DB0F984211D1F3
:1054900010788007C00F0B789B07DB0F984209D16B
:1054A00010784007C00F0B785B07DB0F984201D1E3
:1054B000012070470020FCE702461078C007C00FAB
:1054C0000B78DB07DB0F984221D110788007C00FE3
:1054D0000B789B07DB0F984219D110784007C00F5B
:1054E0000B785B07DB0F984211D110780007C00FD3
:1054F0000B781B07DB0F984209D11078C006C00F4C
:105500000B78DB06DB0F984201D1012070470020A9
:10551000FCE770B504460D4620882988884217D1DB
:10552000A07CC007C00FA97CC907C90F88420FD152
:10553000A07C4008A97C4908884209D1A07C420887
:10554000A91CA01C05F028FB002801D1012070BD7A
:105550000020FCE770B504460D461022294620467F
:1055600005F01AFB002801D1012070BD0020FCE7E6
:1055700070B505460C4628782178884208D1062265
:10558000611C681C05F008FB002801D1012070BDDA
:105590000020FCE770B504460D4620782978884243
:1055A00033D16078697888422FD1A91CA01CFFF7FD
:1055B00066FF002829D0E91CE01CFFF760FF0028E7
:1055C00023D0291D201DFFF777FF00281DD0691D5E
:1055D000601DFFF771FF002817D0A91DA01DFFF760
:1055E00098FF002811D029461A3120461A30FFF7BB
:1055F000B1FF002809D029462A3120462A30FFF77A
:10560000B7FF002801D0012070BD0020FCE77CB569
:105610000446A0880B4908800020C0430749091FA1
:1056200008600722A11D05483E3005F06FFA0021F1
:105630000248001F416609E04C200020A421002000
:10564000082200204A20002094210020607BC0070F
:10565000C00F19D0607B4508072D04DAE800FD492A
:105660000856072804DBFC488168032088470AE0C5
:10567000E800F84A105668225043F84A8118682218
:10568000F74805F043FA20E0002518E0E800F54966
:10569000401846680622F2494331701C05F07CFA36
:1056A00000280BD1E800EF4A105668225043EB4A1D
:1056B00081186822EA4805F029FA04E06D1CEA48DE
:1056C00000788542E2DB00BF00BFE5480068401C6F
:1056D00013D0E148406800280FD001200090E04836
:1056E000007841B268460171DD48C18F6846C180CB
:1056F000D94841686846884700BF7CBD70B50546FB
:10570000D7480068401C03D0D8480078002806D14C
:1057100000221146D6480088A9DF044603E0D0489D
:10572000FFF708FD0446002C03D0CB4881682046D3
:10573000884770BD7CB504462146C948001DFFF767
:1057400029FF00283CD132222146C548001D05F022
:10575000DDF9E188C248C187FFF769FB0546042DE2
:1057600013D1BD48406800280FD004200090BC48E9
:10577000007841B268460171B948C18F6846C1805E
:10578000B54841686846884705E0002D03D0B24817
:10579000816828468847B048406800280FD0032019
:1057A0000090AF48007841B268460171AC48C18FA3
:1057B0006846C180A84841686846884700BF00BF66
:1057C0007CBDF8B5074600BFAA480078002801D183
:1057D0000820F8BD00BF0026F64300240AE0682038
:1057E00060439E494018C08FB84201D166B205E0BF
:1057F000601CC4B2A04800788442F0DB00BF701C7B
:1058000001D10520E5E7F4B226E0621C68235A4383
:10581000924BD11868226243D018682205F076F9BD
:10582000682060438D490858401E682161438B4AB7
:1058300050506820604311464018C06C411C09D08C
:105840006820604311464018C06C401E68216143C7
:105850008918C864601CC4B287480078401EA04202
:10586000D3DC85490978491E682251437B4A881850
:10587000682105F072F980480078401E7E49087062
:10588000754908787D4901F06AFF0546002D01D071
:1058900028469EE770494878794901F060FF05463F
:1058A000002D01D0284694E7FFF7EBFB0546002DBD
:1058B00001D028468DE700207249087072490870AF
:1058C00000240CE068216143644A8818FFF7AFFAAE
:1058D0000546002D01D028467BE7601CC4B266480F
:1058E00000788442EEDB00240EE0682161435B4ACD
:1058F000891808464C30FFF7EBFA0546002D01D019
:10590000284666E7601CC4B25B4800788442ECDB42
:10591000FFF729FC00205CE770B5044620780028DA
:1059200000D070BD4E480068401C21D1E088FFF7D0
:105930000AFD0546002D02D0052D08D106E0484994
:10594000098888B2FFF73DFF054601E000E000BF8F
:1059500000BF46480078012809D12046FFF76CFCBB
:105960000546002D03D03C4881682846884702E060
:105970002046FFF7DFFE00BFD3E770B505460C22D7
:10598000A91D3748363005F0C1F83549C88FFFF7F3
:10599000DAFC0446002C0DD1002231490A3134488A
:1059A000008871DF0446002C18D02B4881682046FF
:1059B000884713E0052C11D1002211462C4800889D
:1059C00071DF0446002C03D02348816820468847B5
:1059D0000022114626480088A9DF0446002C03D087
:1059E0001D4881682046884770BDFEB50446207872
:1059F0000607360F20780709012E01D1012F03DC9D
:105A0000022E25D1002F23D000BF01201749087096
:105A100000BF1348FFF78EFB0546002D03D00E484C
:105A20008168284688470C48406800280FD002202B
:105A300000900B48007841B2684601710848C18F58
:105A40006846C180044841686846884700BF00BF77
:105A5000FEBD00001825002094210020082200200F
:105A6000A0210020E02400204D2000205E20002006
:105A70004A200020482000204C20002054200020F4
:105A8000582000205C2000205D20002010B5044636
:105A9000E4480078002803D1E3488168082088475B
:105AA000208817281AD006DC102809D011280BD01E
:105AB00014281FD116E0182818D052281AD109E04E
:105AC0002046FFF7A4FD16E000BF0020D74908706C
:105AD00000BF10E02046FFF711FE0CE0A01DFFF70D
:105AE0001BFF08E02046FFF748FF04E0A01DFFF77A
:105AF0007CFF00E000BF00BF10BD38B500BFC94843
:105B00000078002801D1082038BD00BFC8480068CF
:105B1000401C1CD0142000906A46C5495031C5482D
:105B20000088AADF0446002C01D02046ECE7C048DC
:105B30000068BF49C86468460188BD484166FFF7F0
:105B4000E8FB0446002C01D02046DDE700BFFFF74C
:105B5000ADFA00281DD0B449087801F07FFD044655
:105B6000002C01D02046CFE70020B3490870002563
:105B70000BE068216943B14A8818FFF758F90446D9
:105B8000002C01D02046BFE76D1CAD48007885424F
:105B9000EFDBFFF7ACFA00281FD0A349487801F0EB
:105BA0005DFD0446002C01D02046ADE70020A5494C
:105BB000087000250DE068216943A04A891808464D
:105BC0004C30FFF785F90446002C01D020469BE7B6
:105BD0006D1C9B4800788542EDDB0020C043954951
:105BE000088093490860C8640021914841660020FC
:105BF0008AE738B58E48406E002826D114200090E0
:105C00006A468B4950318B480088AADF0446002C35
:105C100001D0204638BD864800688549C86468467A
:105C20000188834841660146096868225143834AD6
:105C3000891808464C301C227D494C3104F066FF1F
:105C40007B484C30FFF744F9E4E70820E2E710B561
:105C500074480078002801D1082010BD0020784940
:105C600008707549087077490870FFF70AFAF4E779
:105C700070B504460D46601C0DD071480078844212
:105C800009DA002D07D0682060436C494018407A3B
:105C90004007C00F01D0072070BD68206043674AED
:105CA0008018014642310722284604F02FFF0020C9
:105CB000F2E710B50246002107E0C800624BC018A9
:105CC00040688B00614CE050491C6148007881427B
:105CD000F3DB002107E0C8005E4BC01840688B0072
:105CE0005D4CE050491C5D4800788142F3DB5B4825
:105CF0000078107159480078002801D0564800E01B
:105D00000020106052480078107351480078002835
:105D100001D04E4800E000209060002010BD70B51A
:105D20000546A868002801D1072070BD0121090798
:105D3000096988B2502104F0D3FE072801D20C2053
:105D4000F3E7394829460EC90EC06821384804F0E7
:105D500004FF0020C043364908603649088000200F
:105D600037490870344908703649087000BF2F4918
:105D7000087000BF2C488078002806D0FFF781F912
:105D80000446002C01D02046CFE7FFF7FEFA044678
:105D9000002C01D02046C8E70120224908700020CD
:105DA000C3E710B5034600BF1E480078002801D1A4
:105DB000082010BD00BF002901D10E20F9E7088896
:105DC0001F4C2478A04201DA0C20F2E71C4800782E
:105DD0000880002B01D10020EBE7002200BF07E084
:105DE00068205043154C0019C08F54001853521CA2
:105DF000134800788242F3DB0020DAE7014600BF57
:105E000008480078002801D10820704700BF0748E3
:105E10000078002801D0012000E000200870002058
:105E2000F3E7000048200020942100205E2000209D
:105E3000A02100204A2000205C2000200822002011
:105E40004C2000205D200020182500207821002013
:105E50004E200020E02400205C2100204D20002066
:105E6000FEB505460E4614462078801C1F21081AF0
:105E700080B200902178891C881969466DDF0190F5
:105E80000198002801D00198FEBD2879002808D08B
:105E9000287969460988884203DA2879009008271A
:105EA00000E0092768460088401CC1B22278501CD7
:105EB0002070B1542178481C2070775421786846AE
:105EC0000088081820700020DEE7F8B505460C466B
:105ED0002078001D1F2801DD0C20F8BD684669DF11
:105EE0000646002E01D03046F7E703212278501CE9
:105EF0002070A95419212278501C2070A9542078B0
:105F000041196846008800F08AFA2178401820700C
:105F10000020E2E7F8B505460F4616461C466868BD
:105F2000002801D10720F8BD2078801C298840185E
:105F30001F2801DD0C20F6E72878401CC1B222782A
:105F4000501C2070B1542178481C207077542A8846
:105F500023789819696804F0D9FD207829784018C9
:105F600020700020DFE730B503461078C01C1F28E2
:105F700001DD0C2030BD02241578681C10704C55D2
:105F80000A241578681C10704C551578681C107020
:105F90004B550020EEE7FFB587B006461D46109C26
:105FA0000020069020780590002747E0B90070682F
:105FB00041180A886846028149884181002203A964
:105FC00002A854DF04900498002802D004980BB073
:105FD000F0BD6846017B099881422ED106980028C1
:105FE00001D0002000E00220019020786946097B62
:105FF0004118019808181F2801DD0C20E7E70698D2
:10600000002809D12078401C20702278511C089863
:106010002170A854012006902078421903A902A8F3
:1060200054DF04900498002801D00498CFE720782A
:106030006946097B4018207000BF7F1C3088B84239
:10604000B4DC0698002806D021780598401C081A70
:10605000C1B2059829540020B9E7FFB581B00746C1
:1060600015460A9E009602223846049B0299FFF7C5
:1060700092FF0446002C02D0204605B0F0BD0096E9
:10608000102229463846049BFFF785FF0446002C62
:1060900001D02046F1E70020EFE7014608880628F6
:1060A00008DB08881922D201904205DD0888E04A01
:1060B000904201D0072070474888062808DB4888AE
:1060C0001922D201904205DD4888D94A904201D078
:1060D0000720F0E70888D64A904208D048889042C6
:1060E00005D008884A88904201DD0720E3E70020B8
:1060F000E1E7F8B506460D4614462078801D1F28B6
:1061000001D90C20F8BD3046FFF7C7FF0746002F26
:1061100001D03846F6E705212278501C2070A9549A
:1061200012212278501C2070A954227851193088ED
:1061300000F075F921784018207022785119708884
:1061400000F06DF92178401820700020DAE7F8B5EA
:1061500005460E4614462879801CC7B22078801C5C
:10616000C0191F2801DD0C20F8BD781CC1B22278AF
:10617000501C2070B154FF212278501C2070B15463
:1061800022789119288800F04AF921784018207067
:10619000A88800280EDDA868002801D10720E3E7C1
:1061A000AA8823789819A96804F0B0FC2078297986
:1061B000401820700020D7E7FEB507460E4614466B
:1061C000786B002801D10720FEBD0020019032E04D
:1061D000796B0C22019850430D182879801CC0B2AD
:1061E00000900098401CC1B22278501C2070B1541D
:1061F00016212278501C2070B154227891192888D9
:1062000000F00DF9217840182070A88800280EDDD4
:10621000A868002801D10720D6E7AA882378981912
:10622000A96804F073FC207829794018207001983F
:10623000401CC0B201903820C15D01988142C7DC8A
:106240000020C1E7F8B504460F4616460025002099
:1062500030702068002809D0324639462046FFF7C2
:10626000FFFD0546002D01D02846F8BD60790028C5
:1062700008D031463846FFF728FE0546002D01D0EC
:106280002846F2E7208900280BDD33463A460121F3
:1062900020460830FFF73EFE0546002D01D0284677
:1062A000E3E7206900280BD0002021690856324618
:1062B0003946FFF758FE0546002D01D02846D4E7A1
:1062C000A08A00280CDD3B4606220221204614301D
:1062D0000096FFF7C2FE0546002D01D02846C4E710
:1062E000A08B00280CDD3B460722032120461C30F2
:1062F0000096FFF7B2FE0546002D01D02846B4E710
:10630000A08C00280CDD3B461522142120462430A9
:106310000096FFF7A2FE0546002D01D02846A4E70F
:10632000E06A002809D032463946E06AFFF7E1FE0C
:106330000546002D01D0284697E7206B002809D09C
:1063400032463946206BFFF702FF0546002D01D08B
:1063500028468AE73820005D002809DD32463946A4
:106360002046FFF729FF0546002D01D028467CE78F
:1063700028467AE701460889002807D0C86800281F
:1063800004D0C86800780422104201D10720704769
:106390000020FCE701460889002801DD072070473E
:1063A0000020FCE7F3B593B00D4600211291119146
:1063B0001398002814D01398FFF7DCFF0446002C34
:1063C00002D0204615B0F0BD12AA09A91398FFF714
:1063D00039FF0446002C01D02046F3E709AE00E067
:1063E0000026002D13D02846FFF7D4FF0446002CCA
:1063F00001D02046E6E711AA01A92846FFF722FFAF
:106400000446002C01D02046DCE701AF00E0002765
:1064100010A803793A46017A304662DFD2E7024695
:106420000A70FF20000210400012487002207047DE
:10643000FFFF000010B5002819DAF74A03071B0F09
:10644000083B9B089B00D2588307DC0EFF23A34028
:106450009A438B071B0E8407E40EA3401A43EE4BAE
:106460000407240F083CA408A4001A5118E0EB4AC2
:1064700003231B02D21883089B00D2588307DC0E2B
:10648000FF23A3409A438B071B0E8407E40EA3400F
:106490001A43E24B032424021B198408A4001A5156
:1064A00010BD10B50446DE48846003211120FFF7BB
:1064B000C1FF10BD10B501200004DA494860D94978
:1064C00040394860112000F0AAFC112000F099FC2E
:1064D0000120D54908602F20FDF7FCFD10BD10B547
:1064E000112001218140CD4A8032116000BF01207E
:1064F0000004CC498860CB49403988600120CA49F2
:1065000048602F20FDF7E6FD10BDF0B502462820BB
:106510005043C64B1B68C118C5480068401C02D1D7
:10652000C348026057E0C2488B6800682824604373
:10653000BE4C246800198068834217D8BC480068A4
:1065400028235843B94B1B68C01880688B68C31A4E
:10655000B748006828246043B44C2468001983605D
:10656000B34800684862B248026034E08B68B04DBE
:106570002C6828680DE028254543AC4E3668AD19D7
:10658000AD685B1B044628254543A84E3668AD1907
:10659000686A451C07D028254543A44E3668AD19C6
:1065A000AD689D42E7D3451C0CD0282545439F4E3E
:1065B0003668AD19AD68EE1A282545439B4F3F68F4
:1065C000ED19AE608B60486228256543974E3668AA
:1065D000AD196A6200BFF0BD70B50246944C2168E7
:1065E000084609E0904200D108E0014628244443CF
:1065F0008E4D2D686419606A441CF3D100BF441CA1
:1066000000D170BD814209D1894C246828256C4392
:10661000864D2D686419646A854D2C602824444396
:10662000824D2D686419A368282444437F4D2D684A
:106630006419656A28244C437C4E3668A419656247
:1066400028244C43794D2D686419606A441C0CD091
:1066500028244443754D2D686419A468E51828243E
:106660004443724E3668A419A56000BFC9E710B54F
:10667000112000F0CDFB10BD10B5142000F0C8FBB8
:1066800010BD70B504466B480068002813D0694AF5
:10669000216AE06912689047054600BF2E46002E29
:1066A00007D000BF64A2FF215331304602F024FC22
:1066B00000BF00BF02E0E169206A884770BDF8B5FD
:1066C0005B480068401C3BD0002660480078401CB6
:1066D000C5B2022D00D100255D480078854225D045
:1066E00000F0CFFB04465B480168204600F0CCFB7D
:1066F00007464F480068009013E02821009848435F
:106700004A4909684418A068B84200D90CE0A0685A
:106710003F1AA0688619606A00902046FFF7B1FF13
:1067200000BF0098401CE8D100BF00BF4748007878
:10673000800049490E5045480570FFF79DFF00BF96
:10674000F8BD014642480078404A127890421DD078
:106750003F4800788000404A105808603C48007864
:10676000401C3B4A107010460078022801D10020DE
:106770001070384A086812688018364A106010464F
:1067800000680002000A10600120704700200860C5
:1067900000BFFAE7FEB52648006801902F48007850
:1067A000009066E00098C0002D49096844182578DB
:1067B0005BE01820684361680F18681CC5B2A078B8
:1067C000A84200D100253868022802D0032849D108
:1067D0000EE0282178684843144909684618307E3D
:1067E000002804D07868FFF7F7FE002030763AE002
:1067F0000CE00F490968282251430C4A1268881896
:10680000002101760A4A416A116000BF0848006809
:10681000401CEED127E000001CED00E000E100E0AC
:10682000001501404013014000100140602000208D
:106830006C200020802000202E2E5C6C6962735C2E
:106840006170705F74696D65722E63007D20002039
:106850007C20002070200020742000206520002073
:106860006820002000BF00BF00BF6078A842A0D110
:1068700000BF0098411EC9B20091002892D1FA4889
:1068800001680198814201D00120FEBD0020FCE793
:10689000F0B50346002426E0F34E366828277E43F1
:1068A000F24F3F68F01986689E4203D98668F61A4F
:1068B00086601CE086689B1B86683419002686600B
:1068C0000676E94E3568E84F466A3E604669002E16
:1068D00008D00E193602360AC66046690661166887
:1068E0004662156000BFE0480068401CD4D100BF7C
:1068F000F0BDFEB50746DC4800680290DC48007831
:10690000019069E00198C000DA49096845185CE027
:10691000781C07D03E4628207043D44909684418A3
:10692000676A23E02978182359436A685018297840
:10693000491C29702978AA78914201D10021297037
:10694000466828217143C94A12688C1801680129D8
:1069500002D1217E002900D037E08168E160C16862
:106960002161016961614169216200BFC249E0683A
:106970000968401A0002000AC049884208D2BE498C
:10698000E068096800F080FA21694018A06011E011
:10699000B948E168006800F077FA00902169009832
:1069A000814204D921690098081AA06001E0002002
:1069B000A06000BF0020E060206101202076801EE2
:1069C00060623046FFF7A1FD00BF781CA0D1287897
:1069D000697888429CD100BF0198411EC9B20191DB
:1069E00000288FD1A04801680298814201D001207F
:1069F000FEBD0020FCE7FEB505469B480068401C34
:106A000033D09948006828214843984909684018BC
:106A1000866800F036FA029097480468214602988A
:106A200000F032FAC01C0190681C01D1FFF742FD52
:106A30000198B04201D2304600E0019804192402C6
:106A4000240A20468E49086000BF00F01AFA009020
:106A5000029900F019FA07462046029900F014FA4C
:106A6000874201D9FFF703FE01E0FFF738FDFEBDC5
:106A7000FEB50020C04301907F4804687A4807684B
:106A80006846FFF75EFE0546FFF784FE0646002DCA
:106A900005D001AA21460098FFF7FAFE01260198C9
:106AA000FFF727FF002800D00126002E02D038462D
:106AB000FFF7A1FFFEBD30B501464878421C88783B
:106AC000904200D100220878904201D1002030BDD0
:106AD0004878182568434C6823184A701846F6E72A
:106AE000FFB581B005460E461746E900614A1268B7
:106AF0008818FFF7E0FF0446002C02D1042005B0FF
:106B0000F0BD01202060666000F0BBF9A060E76086
:106B1000049820610A986061FFF7AEFD0020EEE75F
:106B200070B505460E46E900524A12688818FFF70C
:106B3000C2FF0446002C01D1042070BD0220206059
:106B40006660FFF799FD0020F7E770B50546E9009C
:106B5000484A12688818FFF7AEFF0446002C01D19E
:106B6000042070BD03202060001F6060FFF784FDDB
:106B70000020F6E710B50020424908600021414896
:106B800041608160C16000203E4940390860486032
:106B9000FFF795FD10BD10B5FFF76AFF10BDFFB5FB
:106BA00081B00E4617461C4620468107890F01D149
:106BB000012100E00021002902D1072005B0F0BD2D
:106BC000002C01D10720F9E7FFF789FC2E490A982C
:106BD00008602E4806702548046000250CE000215E
:106BE00028206843214A12681150282068431F4A10
:106BF0001268801801766D1CB542F0DB28207043C6
:106C0000041903201A4908701A4804601834002532
:106C10000CE0E900174A12688818002101704170E1
:106C200087704460182179430C196D1C032DF0DB2B
:106C30000020C0430C490860002015490870154920
:106C40000870142000F0EBF803211420FFF7F2FB8A
:106C5000142000F0D6F80198FFF723FC00F011F99A
:106C6000054908600020A9E76C2000206020002072
:106C7000652000206820002070200020FFFF7F009A
:106C80004015014040110140802000206420002078
:106C90007C2000207D20002070B503460C467D48F6
:106CA0000068002801D1082070BD002A01D107200A
:106CB000FAE7002B01D10720F6E700211CE028208D
:106CC0004843744D2D682858002814D101252820E8
:106CD0004843704E36683550282048436D4D2D6826
:106CE00040194460282048436A4D2D684019C2610C
:106CF00019600020D8E7491C674800788142DEDB34
:106D00000420D1E710B500F092F8012802D0032842
:106D100004D101E0002403E0012401E0022400BFCB
:106D200000BF204610BDFEB504460D461646594824
:106D30000068002801D10820FEBD57480078844231
:106D400001D2052D01D20720F6E7282060435149E2
:106D500009680858012801D00820EDE72820604381
:106D60004C49096840184068012801D1284600E0D4
:106D700000200746FFF7C6FF3B462A4621460096FD
:106D80000190FFF7ADFED7E770B5044641480068B3
:106D9000002801D1082070BD3F480078844201D30B
:106DA0000720F8E7282060433A4909680858012875
:106DB00001D00820EFE7FFF7A5FF05462146FFF7C2
:106DC000AFFEE8E710B533480068002801D108207D
:106DD00010BDFFF797FF0446FFF7B7FEF8E710B5C1
:106DE000044600F04EF82060002010BD70B5054646
:106DF0000E4614463146284600F046F82060002032
:106E000070BDC206D20E01219140244A1160704724
:106E1000C206D20E01219140214A11607047C2067C
:106E2000D20E012191401E4A80321160704710B588
:106E30001C484068C105C90D002920D00A46103AF7
:106E4000104600280DDA174B1C330407240F083CAA
:106E5000A408A4001B598407E40EE3401B069B0F03
:106E60000BE00E4B032424021B198408A4001B59B9
:106E70008407E40EE3401B069B0FD8B210BD04202C
:106E8000FCE70948406870470246501A0002000AB1
:106E900070470000602000206420002000E100E036
:106EA00000E200E000ED00E000150140F0B5024610
:106EB0000C46002035E001238340194623460B424F
:106EC0002ED0D5680D4205D101235B04D5680D4352
:106ED000D56004E003231B04D5688D43D5600525E8
:106EE0002D0707263602AD198600AD590326360454
:106EF000B5430526360707273F02F6198700F551E7
:106F000005252D0707263602AD198600AD591D430C
:106F10000526360707273F02F6198700F55100BFFF
:106F2000401C2028C7D3F0BDFEB5E148066900200B
:106F3000E049C863002527E014206843DE4909685A
:106F400044180120A840DD49096808421AD0E068C9
:106F5000C043704021680840074639462046FFF785
:106F6000A5FFA068B04338400090606830403840CA
:106F7000019000990198084303D022690099019873
:106F8000904700BF681CC5B2CD4800788542D3DB6E
:106F9000FEBD10B50146002028E014224A43C64B2E
:106FA0001B689A58012383401A421ED005221207FB
:106FB00007231B02D2188300D25803231B049A43D1
:106FC00005231B07072424021B1984001A510522DC
:106FD000120707231B02D2188300D25805231B0770
:106FE000072424021B1984001A51401C2028D4D3E2
:106FF00010BD70B505460C46002C01D1072070BDB0
:1070000020468107890F01D1012100E000210029DC
:1070100001D10720F3E7A8480460AA4805700020C2
:10702000A7490870A5490860A64800781422504373
:107030000146A148006803F090FD0020C043A2492A
:107040008860062001218140A04A116000BF012113
:1070500000F0F7F80620012181409D4A116000BF31
:107060000020CCE7F8B504460D4616461F46924868
:107070000068002801D10820F8BD002F01D10720A9
:10708000FAE78F4800788F490978884201DB0420AD
:10709000F2E7284630438A49097814225143864A48
:1070A0001268505086480078142148438249096884
:1070B0004018456082480078142148437E49096899
:1070C000401886607E480078142148437A49096850
:1070D000401807617A480078207079480078401C91
:1070E000774908702078FFF754FF0020C4E7F0B517
:1070F000024671480068002801D10820F0BD7048A0
:107100000078824201DB0720F8E70020694BD86352
:107110006748046969480068002802D158066A4B2C
:10712000586001209040654B1B681843634B186002
:10713000002314205043604D2D684019C360002186
:1071400040E001238B401846142353435A4D2D68C9
:10715000EB58034235D02546054202D003231B04D9
:107160000EE001235B0414255543534E3668AD19D8
:10717000ED680543142656434F4F3F68F619F560F6
:1071800005252D0707263602AD198E00AD590326B9
:107190003604B5430526360707273F02F6198F0048
:1071A000F55105252D0707263602AD198E00AD597C
:1071B0001D430526360707273F02F6198F00F551B4
:1071C00000BF491C2029BCD3002097E710B5044616
:1071D00039480068002801D1082010BD38480078DF
:1071E000844201DB0720F8E72046FFF7D2FE0120AA
:1071F000A040324909688143304801600068002896
:1072000003D10120C007304988600020E5E710B5B0
:10721000024629480068002801D1082010BD2848EE
:107220000078824201DB0720F8E714205043224C0B
:10723000246803191E4800691C682040086000206B
:10724000ECE710B5002819DA224A03071B0F083BA8
:107250009B089B00D2588307DC0EFF23A3409A4370
:107260008B071B0E8407E40EA3401A43194B040737
:10727000240F083CA408A4001A5118E0144A032360
:107280001B02D21883089B00D2588307DC0EFF2311
:10729000A3409A438B071B0E8407E40EA3401A43B6
:1072A0000B4B032424021B198408A4001A5110BD9F
:1072B000000500504061004084200020882000200C
:1072C0008D2000208C2000200063004080E200E040
:1072D00000E100E01CED00E070B504468A4800685B
:1072E000002812D02178884AA06812689047054685
:1072F00000BF2E46002E06D000BF84A229213046B2
:1073000001F0FAFD00BF00BF02E02078A1688847C5
:1073100070BDF1B582B00027029C694681480078B3
:10732000FFF775FF01900198002800D0FEBD7E494F
:1073300000980968084007467C480068009988431F
:107340000743204638400446002C18D0002511E0A1
:107350000C20684376490968461831780120884036
:10736000204205D0B068002802D03046FFF7B4FFB5
:10737000681CC5B26F4800788542E9DB00BF00BFDA
:10738000D4E770B504460D466B480068FFF7FCFC77
:107390000646002E00D070BD2046284302466748AE
:1073A000016865480068FFF7BEFC064600BFF2E7CB
:1073B000FFB583B005460C461646052E02D20720BF
:1073C00007B0F0BD5A4805605A4804705B48066033
:1073D0004D490698086000205349086053490860E9
:1073E0002CE00C2161434819027801924168029116
:1073F000029989000522120707231B02D318019A5C
:107400009200995000BF4178002901D0012100E08D
:10741000002102789140444A12681143424A1160A7
:107420004178002901D1012100E00021027891403A
:107430003E4A126811433D4A116000BF2046611E5A
:10744000CCB20028CDD13E4B38480268364801689E
:107450003448FFF707FE0746002F01D03846AFE754
:10746000384A00213448FFF717FCA9E710B5304827
:107470000068002801D1082010BD2A480078FFF7D5
:1074800036FEF9E710B52A480068002801D1082027
:1074900010BD24480078FFF799FE0446002C01D067
:1074A0002046F5E724480068FFF76EFCF0E7F8B5E2
:1074B00007460C4600261E480068002801D1082017
:1074C000F8BD694617480078FFF7A1FE0546002D74
:1074D00001D02846F4E70120B8400646009806424D
:1074E00008D112480068304201D0012000E000209D
:1074F000207007E00C480068304201D0012000E015
:10750000002020700020DBE7A42000202E2E5C6CE1
:107510006962735C6170705F627574746F6E2E6304
:1075200000000000A82000209C20002098200020BF
:107530009020002094200020AC200020A0200020DB
:10754000837301001373010070B503460C46002AD3
:1075500001D1894D00E015882846002111E005126F
:1075600006023543A8B25D5C684005062D0F6840F1
:1075700005034540A8B205062D0D6D0068404D1C61
:10758000A9B2A142EBDB70BD02217C4A516000BF71
:107590007B4909680029FBD07849886000BF784999
:1075A00009680029FBD00021744A516000BF74496A
:1075B00009680029FBD070470122704B5A6000BF58
:1075C0006F4A1268002AFBD0016000BF6C4A126843
:1075D000002AFBD00022694B5A6000BF684A12683B
:1075E000002AFBD0704770B504460D4600E03DDF31
:1075F000644800780028FAD101206049486000BF43
:107600005F4800680028FBD0256000BF5C48006828
:107610000028FBD000205949486000BF5848006846
:107620000028FBD070BD70B504460D4629462046A3
:10763000FFF7D9FF002070BDF8B505460E46174686
:10764000002407E0A00031582846FFF7CCFF2D1D8D
:10765000601C84B2BC42F5DB0020F8BD70B5044666
:1076600001200007006980B2604305462846FFF705
:107670008BFF002070BDF7B584B0154601200007D0
:10768000006980B20499484307463C46A90000229D
:107690000598FFF759FF039020680190019880B288
:1076A000029003990298884202D1002007B0F0BDF1
:1076B0003846FFF769FF241D241D002607E0B200AD
:1076C000059881582046FFF777FF241D761CAE42AF
:1076D000F5DB2946381DFFF786FF2B490398084341
:1076E000019038460199FFF77EFF0020DEE7F7B5ED
:1076F00086B00746144601200007006980B278432F
:107700000490049D286803900398000C00040190E5
:107710001D490198884204D000202070052009B03E
:10772000F0BD2D1D287820702D1D2078800005903B
:107730002946059A079803F0E9F92078810000228C
:107740000798FFF701FF06460F4830430290039960
:107750000298884201D00520E1E70020DFE70246D9
:1077600001200007006980B2504308600020704784
:107770000449087070470000FFFF000000E5014069
:1077800000E40140B02000200000DE4510B518489C
:107790000078012148401649087016480068002802
:1077A00004D00846007813490968884710BDF8B529
:1077B00005460F4616460F480660152027DF04468B
:1077C000002C01D02046F8BD2946152028DF0446AC
:1077D000002C01D02046F6E7152023DF0446002CBC
:1077E00001D02046EFE73946032049DFEBE70000F0
:1077F000B4200020B82000200020FC4908600120AF
:10780000FB49C86048600020FA49086070471CB511
:107810000120F749C860F5490860032000906846D8
:10782000F549096888471CBD08B5F048006802287A
:1078300002D00120EE4988606946F04800F005FB5F
:10784000002802D0FFF7E3FF08BD8020EC498860E4
:1078500068460078E749C8610220E4490860802052
:10786000E749486000BFEFE710B5E448C068E34966
:107870008968401A02D0FFF7D7FF01E0FFF7C7FF82
:1078800010BD10B5D9480068012802D0022807D1E0
:1078900002E0FFF7B1FF04E00320D449086000E0F4
:1078A00000BF00BF10BD10B5D0480068002802D04E
:1078B000032817D112E00420CE4908600120CC49EA
:1078C0000860CE48C068CD498968401A02D0FFF7E9
:1078D000ABFF02E00120C549086004E00220C34973
:1078E000086000E000BF00BF10BD10B5BF480068D1
:1078F000012807D0022804D0032806D1FFF77CFF17
:1079000004E000BFFFF7B0FF00E000BF00BF10BD04
:1079100010B5B6480068012801D1FFF785FF10BDFA
:1079200010B5FFF769FF10BD10B50446230003F042
:10793000A5FC0504070D0A101300FFF7A2FF0CE0D9
:10794000FFF7B1FF09E0FFF7D0FF06E0FFF7E0FF28
:1079500003E0FFF7E5FF00E000BF00BF10BDF8B592
:1079600004460D4628462040A649096808420FD023
:107970006946A5480078FFF74AFC0646002E00D06D
:10798000F8BD00980440284600998843054600BF8A
:107990009C480068054203D00120FFF7C5FF06E0C0
:1079A00098480068044202D00020FFF7BDFF00BFE6
:1079B000E6E71CB595488068002822D0002093494E
:1079C00088608C488069C1B2914800F02BFA044667
:1079D000002C07D001200090019468468649096870
:1079E00088470DE08A48C06889498968401A01289B
:1079F00006D10020009068467F490968884700BF8B
:107A000000BF8248C069002805D000207F49C861B6
:107A10000320FFF789FF7D48406A00280ED0002030
:107A20007A494862734880380468046002200090F4
:107A30000194684670490968884700BF1CBD04204E
:107A40006C490860002071498860C861694840300D
:107A5000C06A4008400067494031C8620020C04306
:107A60006449886008610120614988600860704746
:107A70000421604A11600021644A9160D1615D492E
:107A80004031C96A012211435A4A4032D162C17859
:107A9000584A1161817891600121554A91601160C5
:107AA0007047FFB585B004460F460E9D0020039039
:107AB00002904E490860504907980860002F02D193
:107AC000072009B0F0BDB88882B25148396800F08B
:107AD00095F90646002E01D03046F2E7B88982B209
:107AE0004648B96800F08AF90646002E01D03046B3
:107AF000E7E7607800F067F92078002101910199AB
:107B000089000522120707231B02D2188300D150D7
:107B100000BF60783749C86020784861E0684862F3
:107B2000207A002804D00E2032494031C86203E098
:107B3000002030494031C8626068022855D1A078E1
:107B400000F041F9A17801208840324948600020C6
:107B5000C04328490861A078886026484030C06A40
:107B60000121084323494031C862E178012088405F
:107B70002449086000BF03200004052109070722EB
:107B800012028918E2789200885000BFE178012043
:107B900088400390E17801208840029028880028DE
:107BA00010D11D4B1848029A0399FFF75BFA06465D
:107BB000002E01D0304684E7134800780002FF30E1
:107BC000288008E02888FF2801DA072079E728883C
:107BD00000120D49087004A90B480078FFF717FB45
:107BE0000646002E1AD030466BE72EE0C02000205B
:107BF0000020004000250040CC200020602500200F
:107C000000230040C8200020C420002000210040A4
:107C100050250020000500505F7901006E48007873
:107C2000FFF765FA0646002E01D0304649E7E178B5
:107C3000012088400499084203D10120FFF774FE17
:107C400028E00020FFF770FE24E06068012811D1D1
:107C50002888002807D16148007828805F4800788C
:107C6000401C5E4908702046FFF702FF01205C4976
:107C700008600FE02888002807D15848007828803D
:107C800056480078401C55490870FFF7D8FE01207F
:107C9000534908600020C04352498860A1208000F9
:107CA00048600220012181404F4A116000BF0899BD
:107CB00000F052F80220012181404C4A116000BFBF
:107CC0000020FEE610B504462146494800F0BDF804
:107CD00010BD70B504462146464800F0A3F805469D
:107CE0000220FFF721FE284670BD10B5404800F085
:107CF000BEF80446002C01D0204610BD3D4800F0DF
:107D0000B6F80446002C01D02046F6E70020F4E740
:107D1000014633480068002801D0012000E000201F
:107D200008600020704770B50446FF2C04DA042078
:107D3000FFF7FAFD002070BD2004050E26480078EC
:107D4000854201D00720F6E70420FFF7EDFD224829
:107D50000078FFF73BFAEEE710B5002819DA264A5B
:107D600003071B0F083B9B089B00D2588307DC0EC0
:107D7000FF23A3409A438B071B0E8407E40EA34006
:107D80001A431D4B0407240F083CA408A4001A51F1
:107D900018E0164A03231B02D21883089B00D2580E
:107DA0008307DC0EFF23A3409A438B071B0E840737
:107DB000E40EA3401A430D4B032424021B1984082C
:107DC000A4001A5110BD01210522120707231B022E
:107DD000D2188300D1507047C4200020BC2000205E
:107DE000C02000200023004080E200E000E100E02D
:107DF00050250020602500201CED00E003460029EE
:107E000001D10E207047002A02D0501E104201D02E
:107E10000920F7E71960501E988000209860D8600C
:107E200000BFEFE70246D0689368C01A9388984273
:107E300009D8D0689388184013681954D068401C3A
:107E4000D060002070470420FCE70246D0689368A9
:107E5000C01A0AD09068938818401368185C08709C
:107E60009068401C9060002070470520FCE70146A8
:107E7000C86888600020704730B595B00025EEA333
:107E80000FCB11AC0FC41822EFA10BA802F03EFEDD
:107E900011A80FC801AC0FC4601E16220BA902F076
:107EA00035FE01A9EEA003F0A9F9F64901A802F0F8
:107EB000A1FC0546F4A003F0A1F9002406E0F14876
:107EC000015DF3A003F09AF9601CC4B2102CF6DB3C
:107ED000F1490A2004F02EF8284615B030BD1320D1
:107EE00001210522120707231B02D2188300D1505B
:107EF00000BF70470020E9490871887048704871D8
:107F0000C870C88008814881704710B5FFF7E7FF47
:107F1000FFF7F0FFFFF7B0FF10BD00BF0121814068
:107F2000DF4A916000BF704700BF01218140DC4AF9
:107F3000D16000BF70477CB504460D462646D9483F
:107F40000068002804D1012001F046FCD5490860F2
:107F5000002001900090112D18D1D3A003F04EF90C
:107F600000BFD0490968486A0321016000BF00BF13
:107F7000CC490968486A0F22826000BF00BFC94926
:107F80000968486ACBA1416000BF00E000BF00BFA4
:107F9000C4490968486AC34909686A464B6801A927
:107FA00098470198002801D1C6487CBDBD48009B78
:107FB000019A01683046FCF7EDFCBA480068826817
:107FC0000099019890470020EFE7FEB50746B548B5
:107FD0000068002804D1012001F0FEFBB1490860CF
:107FE00000200190009000BFAE490968486A012155
:107FF000016000BFAB490968486AAA4909686A4636
:108000004B6801A998470198002801D1AD48FEBDF1
:10801000ADA003F0F3F8B0A003F0F0F8019E002546
:1080200005E0715DB0A003F0E9F8681CC5B20098E6
:108030008542F6D3019CA08801F023FC0546294621
:10804000AAA003F0DBF8608801F01BFC0546294676
:10805000AAA003F0D3F8E08801F013FC05462946F6
:10806000A9A003F0CBF88F48009B019A016838461D
:10807000FCF790FC8B480068826800990198904753
:108080000020C4E7FEB5074600200190009000BF25
:1080900084490968486A0221016000BF8149096872
:1080A000486A804909686A464B6801A9984701985F
:1080B000002801D18348FEBD7A48009B019A0168DF
:1080C0003846FCF767FC7748006882680099019899
:1080D000904790A003F092F87FA003F08FF8019EE4
:1080E000002505E0715D80A003F088F8681CC5B22A
:1080F00000988542F6D3019CA08801F0C2FB05469A
:1081000029467AA003F07AF8608801F0BAFB0546A8
:1081100029467AA003F072F8E08801F0B2FB054628
:10812000294679A003F06AF80020C4E770B5054637
:108130000E46B41D2188E888814218D1208B022880
:1081400015D100BF00BFA17EE27E12021143084696
:10815000022101404908002906D001204F494870FA
:1081600070A003F04BF802E000204C49487070BD4D
:1081700000B502460B46FFF7BDFE00BDF8B505464B
:108180000C462E4627463888102804D0112803D0E4
:1081900050280BD105E00AE021463046FFF7E8FF02
:1081A00005E021463046FFF7C1FF00E000BF00BFF9
:1081B000F8BDF8B505462F463848407800281AD053
:1081C00036488078002816D134480079002812D12A
:1081D0003846FFF7FAFE044600BF2646002E06D0BA
:1081E00000BF56A2FD21304600F086FE00BF00BF52
:1081F00001202A4908712948807800281BD0274887
:10820000C078002817D125484079002813D1384676
:10821000FFF738FF044600BF2646002E07D000BFF8
:1082200046A2FF210431304600F066FE00BF00BFC9
:1082300001201A494871F8BD67685F31626166655F
:108240003234356332636200576543686174426C4F
:108250007565746F6F7468446576696365000000C6
:108260000D0A4445564943455F5459504520616EB7
:1082700064204445564943455F49443A25730D0AF5
:1082800000000000982500200D0A4D44353A0000FA
:108290002025303278000000302100207C2500208D
:1082A00000050050D42000200D0A20627574746F00
:1082B0006E20310048656C6C6F2C205765436861F7
:1082C00074210000809900000D0A206175746820F7
:1082D00073656E64212000000D0A232373656E64AC
:1082E00020646174613A2000202578000D0A204343
:1082F0004D4449443A202564000000000D0A206CDA
:10830000656E3A20256400000D0A205365713A20FD
:10831000256400000D0A20696E69742073656E641F
:10832000212000000D0A20696E6469636174696F21
:108330006E5F656E61626C65642100002E2E5C7359
:10834000657276696365735C70726F64756374736C
:108350005C6D70626C6564656D6F322E6300000049
:1083600070B504460D46002C02D0204603F082FD75
:10837000002470BDF7B59AB00C4615461A9F002030
:108380001990FC4903C918911790FB4801F069FA4C
:1083900010A90884F9484089401CF8494881386888
:1083A000012804D0022846D003286ED188E0582244
:1083B000F049083101A802F0A9FB19A8019001A811
:1083C00001F08BFDEE49097840182860286803F019
:1083D0007BFD20602068002804D1EAA002F00EFF97
:1083E0001DB0F0BDE64B1B782868C21AE44B1B7821
:1083F0002068C11801A801F0C5FD002802DA00209C
:108400002060EDE7DC4801F02CFA10A908842988E7
:1084100088B201F026FA014610A8C183D7494889DD
:1084200001F01FFA10A94884D5490A7817A92068D5
:1084300002F06CFBD4E71C22CE49603110A802F098
:1084400065FB19A8109010A801F089FECC490978A5
:1084500040182860286803F037FD20602068002855
:1084600003D1C8A002F0CAFEBAE7C54B1B78286842
:10847000C21AC34B1B782068C11810A801F08EFEE9
:10848000002803DA00202060AAE7DAE0BA48801C5E
:1084900001F0E7F910A90884298888B201F0E1F910
:1084A000014610A8C183B549488901F0DAF910A93D
:1084B0004884B3490A7817A9206802F027FB8FE7A0
:1084C000B6A0796802F09AFEB94A1288B96888188D
:1084D00003F0FAFC0646002E03D1AAA002F08EFE9D
:1084E0007EE7FE203070CF207070012001F0B9F9D6
:1084F00070803989AE4A1288891888B201F0B1F9C2
:10850000B080012001F0ADF9F0809C49488901F06C
:10851000A8F9308100207081A549098870187B680E
:108520001946BA6802F0F2FA142112A802F015FBFB
:1085300019A8129013969E490988B8684118149199
:1085400012A801F059FF8E49097840182860286860
:1085500003F0BAFC20602068002803D189A002F053
:108560004DFE3DE7864B1B782868C21A844B1B786A
:108570002068C11812A801F05CFF002805DA00206D
:1085800020608CA002F03AFE2AE77B48401C01F0F4
:1085900068F910A90884298888B201F062F90146B7
:1085A00010A8C1837549488901F05BF910A9488476
:1085B00073490A7817A9206802F0A8FA002E03D0A0
:1085C000304603F057FC0026834802F017FE20686F
:1085D000119000200F900AE00F9A1198815C7E485C
:1085E000103002F00BFE0F98401CC0B20F902968AB
:1085F0000F988142F0D8206810901099888801F077
:1086000040F901460F907448143002F0F7FD1099BC
:10861000488801F036F901460F906F48243002F087
:10862000EDFD1099C88801F02CF901460F906A48B9
:10863000303002F0E3FD5148C088401C4F49C880EB
:10864000CEE600BFCCE6F3B585B006460496082416
:1086500062A002F0D3FD0396002507E00398415D78
:108660005D48103002F0CAFD681CC5B2069885420C
:10867000F4D30499888801F004F905462946564840
:10868000143002F0BBFD0499488801F0FAF8054661
:1086900029465148243002F0B1FD0499C88801F000
:1086A000F0F8054629464C48303002F0A7FD049901
:1086B000888801F0E6F84E4A811A904254D009DCCD
:1086C00000280ED04B4940180CD001283ED002287B
:1086D0004BD1F6E0022949D0032948D00429F7D12B
:1086E000DBE1F7E1069A111B301901F0F3FC0546B6
:1086F00041A002F083FD002D02D1464807B0F0BD35
:1087000045A002F07BFD286800281BD0286800687F
:10871000002803D101201949887013E028680168F6
:1087200045A002F06BFD28680079002804D0286875
:10873000816846A002F062FD284601F007FD286826
:108740000068DBE7284601F001FDC3E147A002F025
:1087500055FD069A111B301901F0B5FE0546002D96
:1087600006D12C48801CC9E7A9E1A9E1EFE079E135
:108770008CE00000F0BF0100112700007C250020E4
:10878000062100200D0A4E6F7420656E6F756768B4
:10879000206D656D6F727921000000000D0A206D5B
:1087A000736720746F2073656E64203A2025730010
:1087B000042100200D0A6570625F7061636B5F7356
:1087C000656E645F646174615F7265717565737411
:1087D000206572726F722100D88201000D0A232376
:1087E000526563656976656420646174613A20004E
:1087F0002F750000DFB1FFFF0D0A40405265636531
:108800006976656420276175746852657370270DF9
:108810000A000000909900000D0A20756E706163D7
:108820006B202761757468526573702720737563B8
:1088300063657373210D0A000D0A206572726F72F1
:1088400020636F64653A2564000000000D0A206211
:108850006173655F726573706F6E736520657272A8
:108860006F72206D73673A25730000000D0A404057
:108870005265636569766564202773656E6444613B
:10888000746152657370270D0A000000AF68F888A4
:1088900000F0F7FF9A49884205D1A86801460C31DB
:1088A00098A002F0ABFC28680068002805D0284694
:1088B00001F047FE2868006820E7284601F041FEE5
:1088C00008E196A002F09AFC069A111B301901F0FB
:1088D000B3FC0546002D01D197480FE797A002F0A1
:1088E0008DFC286800282ED028680068002815D143
:1088F000287B00280BD004229849002002F088F839
:108900002969884206D101209549C87002E00120FA
:108910009349C87001209249087014E028680168E2
:10892000904802F06BFC28680079002805D0286880
:1089300081688C48143002F061FC284601F053FD38
:1089400028680068DAE6284601F04DFDC2E0069A84
:10895000111B301901F0FEFD054683A002F04EFC0C
:10896000002D02D17448C01CC8E687A002F046FC66
:108970002868002803D190A002F040FC02E098A0F3
:1089800002F03CFCA1A0A96802F038FCA7A002F00C
:1089900035FC686802900020019009E0019A029875
:1089A000815CAA4802F02AFC0198401CC0B20190E8
:1089B000A96801988142F1DC287B002806D0A4A098
:1089C00002F01CFCA9A0296902F018FC6F68397834
:1089D000AAA002F013FC79789C4802F00FFC78887A
:1089E00000F04FFF01460190A9A002F007FCB888F3
:1089F00000F047FF01460190A9A002F0FFFBF888B4
:108A000000F03FFF01460190AAA002F0F7FB788931
:108A100000F037FF01460190AAA002F0EFFBF888B2
:108A200000F02FFFAC49884206D1ACA002F0E6FB73
:108A30001320FFF772FA0CE0F88800F022FFA64935
:108A4000491C884205D1A9A002F0D8FB1320FFF7EA
:108A50006BFA284601F0C7FD41480089401C404997
:108A6000088137E03E480078002801D1012000E06D
:108A700000203B490870A1A002F0C0FB069A111B20
:108A8000301901F0B9FD0546002D02D12A48001D1C
:108A900034E6284601F0F6FD1CE0A0A002F0AEFB93
:108AA000069A111B301901F0F6FD0546002D02D182
:108AB0002148401D22E6284601F026FE0AE009E092
:108AC0000499888800F0DDFE054629469DA002F045
:108AD00095FB00BF00BF002010E610B50446002C37
:108AE0000DD09DA002F08AFB00BFBFF34F8FA248BC
:108AF000A249C860BFF34F8F00BF00BFFEE710BDA3
:108B0000011000000D0A20726563656976656420B6
:108B10006D73673A2025730D0A0000000D0A40406E
:108B200052656365697665642027696E697452656C
:108B30007370270D0A000000919900000D0A20753E
:108B40006E7061636B2027696E697452657370275C
:108B5000207375636365737321000000D0200020CB
:108B60007C250020388801000D0A4040526563656D
:108B70006976656420277265637644617461507517
:108B80007368270D0A0000000D0A20756E7061637E
:108B90006B20746865202772656376446174615048
:108BA00075736827207375636365737366756C6C82
:108BB0007921200D0A0000000D0A207265637644B9
:108BC0006174507573682D3E626173655F70757373
:108BD00068206973204E554C4C21200D0A0000007E
:108BE0000D0A2072656376446174507573682D3E7A
:108BF000626173655F70757368206973206E6F744E
:108C0000204E554C4C21200D0A0000000D0A207208
:108C1000656376446174507573682D3E6461746158
:108C20002E6C656E3A202578200D0A000D0A207200
:108C3000656376446174507573682D3E6461746138
:108C40002E646174613A20200D0A0000E882010060
:108C50000D0A2072656376446174507573682068EC
:108C60006173207479706521200D0A000D0A20744B
:108C70007970653A2025640D0A0000000D0A206D08
:108C800061676963436F64653A20257800000000DE
:108C90000D0A2076657273696F6E3A2025780000A0
:108CA0000D0A20746F74616C4C656E6774683A20AD
:108CB000257800000D0A20636D6469643A202578E8
:108CC000000000000D0A206572726F72436F6465C8
:108CD0003A20257800000000012000000D0A206CD9
:108CE00069676874206F6E21212000000D0A206CD6
:108CF00069676874206F6666212120000D0A404074
:108D00005265636569766564202773776974636863
:108D10005669657750757368270D0A000D0A404043
:108D20005265636569766564202773776974636843
:108D30004261636B67726F756450757368270D0AC3
:108D4000000000000D0A2021214552524F522043BD
:108D50004D4449443A2564000D0A21206572726F22
:108D6000723A206D70626C6564656D6F3220726559
:108D700073657465640000000400FA0500ED00E00E
:108D8000002043494860886009200861012041496A
:108D9000C86041483E494031086001203F490860B1
:108DA000704770B53D49C0393D4A002044DF044654
:108DB00000BF2546002D06D000BF3AA2522128460A
:108DC00000F09AF800BF00BF012042DF044600BF58
:108DD0002546002D06D000BF32A25721284600F0BC
:108DE0008BF800BF00BF70BD10B500230322122115
:108DF000184600F019F810BD10B5FFF7D2FFFFF7C5
:108E0000BFFFFFF7F1FF01202249086010BD0020DD
:108E10002849086101201F49486012200121814032
:108E2000254AD16000BF704770B5002B0BD10124DB
:108E30008C40214DEC60214C194D51263601AD1965
:108E40008600AC510AE001248C401B4DAC601C4CE8
:108E5000134D51263601AD198600AC5100BF00BF3D
:108E600000BF012485000E4EAD192C600C020325B5
:108E70002C4315042C431D052C4335465126360141
:108E8000AD198600AC5100BF00BF00BF70BD00002F
:108E90000095004000900040841E000000920040B9
:108EA000006000402E2E5C736F757263655C6C65AC
:108EB000642E63000065004000050050031F02009F
:108EC000031F010000F06BFB00F073F900BF00F01E
:108ED00056FB03480068C16902488847F7E700006D
:108EE000D4200020282F002070B504460D46E0B2A3
:108EF000FEF7EFFE204670BD00F0AEFB04460D46C7
:108F00002A462146F848FFF7F7FF044600BFF7A2BC
:108F100060212046FFF7F0FF044600BFF3A269215D
:108F20002046FFF7E9FF70B500BFF6490520FEF7C0
:108F300060F8044600BF2546002D05D000BFEBA217
:108F400071212846FFF7D8FF00BF00BF70BD38B5BC
:108F500004462068030002F091F905040B0C0D0F84
:108F60000E0000BF6846FEF7ADFE0028FAD004E010
:108F700003E002E001E000BF00BF00BF38BD30B534
:108F80008BB000200790089009900A900021684655
:108F900001770221417700200890002108A8017183
:108FA000D9480A9000BF00200690D84802900120BE
:108FB00040020390D648049001204002059006A884
:108FC0000323D44A02A9009007A8FEF76AFD0446CD
:108FD00000BF00BF2546002D05D000BFC3A2A221BF
:108FE0002846FFF789FF00BF0BB030BD70B50446BF
:108FF0000D462068002803D1284600F0EDFB2060D4
:1090000070BDF1B5072002F05FFF0746384661DF0B
:10901000054600BF2C46002C05D000BFB3A2B221EC
:109020002046FFF769FF00BF2946BBA002F0E6F823
:10903000BCA002F0E3F87E1C06240AE0601EC4B265
:10904000315D0520021B00988154315DB9A002F00A
:10905000D5F8002CF2DCB9490A2002F06BFF384643
:1090600002F008FF0027F8BD38B500BF0020B44B60
:109070000B2208210090FDF792FD044600BF254613
:10908000002D05D000BF99A2CC212846FFF734FF60
:1090900000BF00BF38BD70B50546062001218140E4
:1090A000A84A116000BF102D04D1A7A002F0A6F8B5
:1090B00000F0D2FA00BFA74800682946026AA64815
:1090C0009047044600BF2646002E05D000BF87A269
:1090D000E3213046FFF710FF00BF06200121814049
:1090E000984A803A116000BF70BD70B500BF002380
:1090F0009A4A02219A48FEF75BF9054600BF2E46C0
:10910000002E05D000BF79A2F5213046FFF7F4FE0E
:1091100000BF00BFFEF7AAF9044600BF2546002D98
:1091200005D000BF71A2F8212846FFF7E5FE00BF79
:1091300070BD30B595B0062105918A48006804904D
:109140003C2106A801F009FD022006900021684696
:1091500041770121018405A909910121818604A992
:109160000E9156218180062101817F49039101A83A
:109170001290002106A8FDF715F9044600BF254608
:10918000002D06D000BF59A2FF211E312846FFF74F
:10919000B3FE00BF1421754801F0DFFC00207349C5
:1091A000087048600872282008820020488215B0A4
:1091B00030BD70B56D4863DF044600BF2546002D05
:1091C00006D000BF49A2FF2130312846FFF794FEA8
:1091D00000BFFFF711FE66A002F010F870BD70B579
:1091E00005462888102806D011280AD0132820D038
:1091F000192837D124E0A88863490880FFF707FEC3
:1092000031E062A001F0FAFFFCF777FC044600BFF2
:109210002646002E06D000BF34A2FF214A31304638
:10922000FFF76AFE00BF0020C0435749088000F0E6
:1092300013FA5D4A0021544800886FDF044612E0AB
:10924000A87900280DD131DF044600BF2646002E44
:1092500006D000BF25A2FF2161313046FFF74CFE4A
:1092600000BF00E000BF00BF70BD3EB54F48406981
:10927000401C08D001221207126991B24B4A506972
:1092800001F02EFC02E0012000074069401E694603
:10929000087046484069401C08D001221207126934
:1092A00091B2424A506901F01BFC02E00120000724
:1092B0004069C01EC1B268464170002001903C4820
:1092C0000290012168468170FCF729FD044600BF29
:1092D0002546002D06D000BF04A2FF217A31284682
:1092E000FFF70AFE00BF3EBDEFBEADDE2E2E5C7363
:1092F0006F757263655C636F6D736F757263652EF6
:1093000063000000A8250020005027000C26002044
:109310000C2800204F8F01000D0A206572726F72B9
:109320003A2564000D0A20676574206D6163206131
:10933000646472003A253032780000003021002049
:109340000C2A002080E100E00D0A20627574746F21
:109350006E203000D4200020282F00206606000058
:109360000C2100206CC0010024210020142F0020BB
:109370000D0A206164766572746973696E67207383
:109380007461727421000000082100200D0A424C13
:10939000455F4741505F4556545F444953434F4EE4
:1093A0004E454354454400002A210020001000107F
:1093B0000B8F010010B504462046FCF767FBAB4855
:1093C00021460268AA48FBF71FF82046FBF7C3FCBA
:1093D000A648006821464269A54890472046FFF705
:1093E000FEFE10BD38B500BF0020A24B5022A2499E
:1093F00000900D20FBF70FFB044600BF2546002D13
:1094000006D000BF9D4AFF2194312846FFF774FD26
:1094100000BF00BF38BD30B587B01C21684601F0E1
:109420009CFB0020009005204004019080100290D9
:109430000321684601730021C181012101740020CC
:1094400005908F4806906846FBF7B1FB044600BFC5
:109450002546002D06D000BF884AFF21AF3128469F
:10946000FFF74AFD00BF07B030BD3EB500BF6846FC
:10947000007801090901491C009168460078F02133
:1094800088431030009000BF08227EA168466CDF40
:10949000044600BF2546002D06D000BF774AFF21B5
:1094A000BF312846FFF728FD00BF00200190029041
:1094B000FF219131684681804900C18000210181EE
:1094C000FF219131418101A86ADF044600BF254692
:1094D000002D06D000BF694AFF21C7312846FFF79B
:1094E0000BFD00BF3EBD1E206949088008468078FC
:1094F00040084000401C887008468078022188435C
:1095000063498870084680781C2188430C30604984
:10951000887008468078202188435D49887007203C
:10952000C87010200871704770B55148FAF790FF65
:10953000044600BF2546002D06D000BF4F4AFF213C
:10954000DE312846FFF7D8FC00BF4948FBF7EBF9AE
:10955000044600BF2546002D06D000BF474AFF2124
:10956000E0312846FFF7C8FC00BF70BD00BF494886
:109570004949896A81624849886200BF704770B56D
:109580003DDF044600BF2546002D06D000BF3B4A04
:10959000FF21EC312846FFF7AFFC00BF70BD10B5CE
:1095A000FFF7EDFC3DA001F029FE42A001F026FEF0
:1095B000FFF75AFD43A001F021FEFFF7B4FC45A0E0
:1095C00001F01CFEFFF791FD46A001F017FEFFF72A
:1095D00009FF48A001F012FE4B48FFF712FDFFF70C
:1095E00044FE4AA001F00AFEFFF7C0FF4DA001F0C3
:1095F00005FE01211D48FFF7F9FC50A001F0FEFD1A
:1096000000BF1A490968886980470446002C05D0C4
:1096100000BF1A4A4F492046FFF76EFC00BF4EA01C
:1096200001F0ECFDFFF721FF50A001F0E7FDFFF78F
:1096300080FD53A001F0E2FDFFF776FF55A001F099
:10964000DDFDFFF7E8FE58A001F0D8FDFFF74BFF66
:109650005AA001F0D3FD10BDBFF34F8F5C485D49A8
:10966000C860BFF34F8F00BFFEE70000D42000208A
:10967000282F0020B5930100C42E0020EC92010099
:10968000198F01006D7964657669636500000000DB
:109690002A210020D8200020442F00200D0A2A2A49
:1096A0002A2A2A2A2A2A2A2A2A2A2A2A2A2A2A2A1A
:1096B0002A0D0A000D0A207561727420696E6974A2
:1096C000000000000D0A2074696D65727320696ED8
:1096D000697400000D0A206770696F746520696EF7
:1096E000697400000D0A20627574746F6E732069CE
:1096F0006E6974000D0A20626C6520737461636B7F
:1097000020696E6974000000242100200D0A206287
:109710006F6E64206D616E6167657220696E697439
:10972000690000000D0A2072656769737465722014
:1097300070726F6475637473210000000D0A2064F9
:109740006174612068616E646C657220696E697411
:1097500021000000250200000D0A206D70626C657A
:1097600064656D6F3220696E697400000D0A2067B0
:10977000617020706172616D7320696E69740000A0
:109780000D0A206164766572746973696E67206979
:109790006E6974000D0A20736572766963657320C3
:1097A000696E6974000000000D0A20636F6E6E2000
:1097B000706172616D7320696E6974000D0A2073A7
:1097C000656320706172616D7320696E6974000059
:1097D0000400FA0500ED00E00246324905E0896A1E
:1097E0000868904201D108467047886A0028F6D17F
:1097F00000BFF9E708B52C480090684600781228A9
:1098000001D1012008BD0020FCE700B50146FFF7AB
:10981000F1FF002801D0084600BD080EFF22120407
:109820000A40120A1043FF2212020A401202104399
:109830000A061043F0E700B50146FFF7DBFF0028FA
:1098400001D0084600BD080EFF2212040A40120A89
:109850001043FF2212020A40120210430A0610436C
:10986000F0E700B50146FFF7C5FF002801D0084624
:1098700000BDFF200002084000120A06120C10432F
:10988000F6E700B50146FFF7B5FF002801D008460E
:1098900000BDFF200002084000120A06120C10430F
:1098A000F6E70000442F002078563412014648079E
:1098B000400F0A1201D04A05500F704770B5034699
:1098C0000C4600210846491C185C45066D0E0FE049
:1098D000A14202DB0020C04370BD052900DB0CE083
:1098E000585C4006400ECE00761AB0400543491C35
:1098F000481E185C80263042EAD100BF1560084639
:10990000EAE7F8B505460E4617460024002F06D0B4
:10991000012F0ED0022F0ED0052F19D116E000BF57
:109920002046641C285C8021084201D0B442F7DB49
:1099300011E008340FE000200090311B28196A461E
:10994000FFF7BCFF04190098241804E0241D02E06E
:109950000020C043F8BD00BF2046FBE7F7B582B04A
:1099600005460E4600242CE02046641C285C01902D
:1099700008E0019800022146641C695C4906490E12
:1099800008430190601E285C8021084201D0B44247
:10999000EFDB04990198884202D1204605B0F0BD62
:1099A000019988B2FFF782FF0090311B2819009AB5
:1099B000FFF7A7FF0746002F01DA641C01E0E41956
:1099C00000BFB442D0DB0020C043E7E738B504460F
:1099D0000D46042D01DA002038BD0020009004223D
:1099E0002146684601F092F80098F5E70160826030
:1099F000704770B504460D462A46A1682068FFF7F7
:109A0000ADFF0646002E01DA002070BD0120FCE704
:109A1000F8B504460E463246A1682068FFF79EFF5F
:109A20000546002D01DA0020F8BD00200090A26854
:109A3000511B226850196A46FFF740FF0098F3E770
:109A400070B504460D4629462046FFF7E1FF70BD7C
:109A500070B505460E4631462846FFF7D9FF044645
:109A6000E007C00F03D060084042401E70BD600890
:109A7000FCE770B504460D4629462046FFF7C8FFAF
:109A8000002801D0012070BD0020FCE770B504461D
:109A90000D4629462046FFF7BBFF70BDF8B50446CA
:109AA0000E4617463246A1682068FFF757FF054665
:109AB000002D01DA0020F8BDA268511B2268501960
:109AC0006A46FFF7FBFE4519009838602068401988
:109AD000F1E770B504460D46164632462946204643
